:100000000C9446000C9465000C9465000C946500FB
:100010000C9465000C9465000C9465000C946500CC
:100020000C9465000C9465000C9465000C946500BC
:100030000C9465000C9465000C9465000C946500AC
:100040000C9465000C9465000C9465000C9465009C
:100050000C9465000C9465000C9465000C9465008C
:100060000C9465000C9465000C9465000C9465007C
:100070000C9465000C9465000C9465000C9465006C
:100080000C9465000C9465000C94650011241FBE4F
:10009000CFEFD0E4DEBFCDBF11E0A0E0B1E0E2E001
:1000A000F4E000E00BBF02C007900D92AE30B10744
:1000B000D9F721E0AEE0B1E001C01D92A031B20756
:1000C000E1F70E94E4010C94FF010C940000CF932F
:1000D000DF9300D01F92CDB7DEB789837B836A831D
:1000E00089818A3031F48A819B81BC018DE00E9434
:1000F000670080EC90E0FC018081882F90E08072A6
:100100009927892BB1F386EC90E02981FC012083AB
:1001100080E090E00F900F900F90DF91CF910895C5
:10012000CF93DF93CDB7DEB780910E0190910F0191
:100130008230910509F490C08330910530F4009726
:10014000A9F1019709F460C00AC18430910541F01A
:100150008430910508F4ACC0059709F4CEC0FFC007
:1001600080E290E0FC018081813029F410920F013F
:1001700010920E01EDC080E290E0FC01808182309F
:1001800039F482E090E090930F0180930E01E0C07B
:1001900080E290E0FC018081833009F0D9C085E0E5
:1001A00090E090930F0180930E01D2C080E290E026
:1001B000FC018081833039F485E090E090930F0159
:1001C00080930E01CCC080E290E0FC0180818230FF
:1001D00039F482E090E090930F0180930E01BFC04C
:1001E00080E290E0FC018081882339F484E090E093
:1001F00090930F0180930E01B2C081E090E0909344
:100200000F0180930E01ABC080E290E0FC01808181
:10021000882339F484E090E090930F0180930E01DD
:1002200099C080E290E0FC018081823039F482E064
:1002300090E090930F0180930E018CC080E290E0DB
:10024000FC018081833009F085C085E090E09093C7
:100250000F0180930E017EC080E290E0FC0180815E
:10026000833039F485E090E090930F0180930E0184
:1002700076C080E290E0FC018081813029F4109208
:100280000F0110920E016BC080E290E0FC018081B2
:10029000882339F484E090E090930F0180930E015D
:1002A0005EC083E090E090930F0180930E0157C0F1
:1002B00080E290E0FC018081882339F484E090E0C2
:1002C00090930F0180930E0147C080E290E0FC0103
:1002D0008081813029F410920F0110920E013CC0F0
:1002E00080E290E0FC0180818330B1F585E090E010
:1002F00090930F0180930E012FC084E090E09093C3
:100300000F0180930E0180E290E0FC01808181303A
:1003100029F410920F0110920E0120C080E290E0AB
:10032000FC018081823039F482E090E090930F01EB
:1003300080930E0113C080E290E0FC018081833045
:1003400069F485E090E090930F0180930E0106C060
:10035000000005C0000003C0000001C00000809143
:100360000E0190910F0182309105A1F08530910529
:10037000F9F0892B09F024C088E290E0FC0180812B
:100380008930D8F488E290E0FC0120812F5FFC01E5
:10039000208313C088E290E0FC018081882379F0FB
:1003A00088E290E0FC0120812150FC01208307C0FD
:1003B00088E290E0FC01108203C0000001C0000050
:1003C0000000DF91CF910895CF93DF93CDB7DEB7D3
:1003D00081E290E0FC01108287E290E02FEFFC01C7
:1003E000208388E290E027E0FC01208384E090E015
:1003F00090930F0180930E010E949000FDCFF8941E
:02040000FFCF2C
:0E040200000000020000000067000000000083
:00000001FF
